:020000040800F2
:1000000000400020CD290008291100082B1100080C
:100010002D1100082F110008311100080000000008
:100020000000000000000000000000003311000884
:100030000000000000000000351100083711000822
:10004000152A0008152A0008152A0008152A000894
:10005000152A0008152A0008152A0008152A000884
:10006000152A0008152A0008152A0008152A000874
:10007000152A0008152A0008152A0008152A000864
:10008000152A0008152A0008152A0008152A000854
:10009000152A0008152A00083D110008152A000835
:1000A000152A0008152A0008152A0008152A000834
:1000B000152A0008152A0008152A0008152A000824
:1000C000152A0008152A000839110008152A000809
:0400D000152A0008E5
:1000D8000348044B834202D0034B03B118477047CF
:1000E8001800002018000020000000000548064BFA
:1000F8001B1AD90F01EBA301491002D0034B03B11E
:100108001847704718000020180000200000000061
:1001180010B5064C237843B9FFF7DAFF044B13B147
:100128000448AFF300800123237010BD180000209D
:10013800000000002C2A000808B5044B1BB1044934
:100148000448AFF30080BDE80840CFE70000000096
:100158001C0000202C2A000881F0004102E000BFAA
:1001680083F0004330B54FEA41044FEA430594EA6F
:10017800050F08BF90EA020F1FBF54EA000C55EAAA
:10018800020C7FEA645C7FEA655C00F0E2804FEA7B
:100198005454D4EB5555B8BF6D420CDD2C4480EA5D
:1001A800020281EA030382EA000083EA010180EA8D
:1001B800020281EA0303362D88BF30BD11F0004FDB
:1001C8004FEA01314FF4801C4CEA113102D0404211
:1001D80061EB410113F0004F4FEA03334CEA13334C
:1001E80002D0524263EB430394EA050F00F0A78064
:1001F800A4F10104D5F1200E0DDB02FA0EFC22FA5F
:1002080005F2801841F1000103FA0EF2801843FA52
:1002180005F359410EE0A5F120050EF1200E012A43
:1002280003FA0EFC28BF4CF0020C43FA05F3C01881
:1002380051EBE37101F0004507D54FF0000EDCF1FA
:10024800000C7EEB00006EEB0101B1F5801F1BD3A3
:10025800B1F5001F0CD349085FEA30004FEA3C0CA7
:1002680004F101044FEA445212F5800F80F09A809D
:10027800BCF1004F08BF5FEA500C50F1000041EBA1
:10028800045141EA050130BD5FEA4C0C404141EBA5
:100298000101013C28BFB1F5801FE9D291F0000FA0
:1002A80004BF01460020B1FA81F308BF2033A3F14F
:1002B8000B03B3F120020CDA0C3208DD02F1140C46
:1002C800C2F10C0201FA0CF021FA02F10CE002F181
:1002D8001402D8BFC2F1200C01FA02F120FA0CFC7A
:1002E800DCBF41EA0C019040E41AA2BF01EB0451C3
:1002F800294330BD6FEA04041F3C1CDA0C340EDCC1
:1003080004F11404C4F1200220FA04F001FA02F303
:1003180040EA030021FA04F345EA030130BDC4F1C1
:100328000C04C4F1200220FA02F001FA04F340EAB6
:100338000300294630BD21FA04F0294630BD94F067
:10034800000F83F4801306BF81F480110134013D4E
:100358004EE77FEA645C18BF7FEA655C29D094EABF
:10036800050F08BF90EA020F05D054EA000C04BF3D
:100378001946104630BD91EA030F1EBF0021002028
:1003880030BD5FEA545C05D14000494128BF41F0C7
:10039800004130BD14F580043CBF01F5801130BD2B
:1003A80001F0004545F0FE4141F470014FF00000B6
:1003B80030BD7FEA645C1ABF194610467FEA655C67
:1003C8001CBF0B46024650EA013406BF52EA033509
:1003D80091EA030F41F4002130BD00BF90F0000FF7
:1003E80004BF0021704730B54FF4806404F1320433
:1003F8004FF000054FF0000150E700BF90F0000FEC
:1004080004BF0021704730B54FF4806404F1320412
:1004180010F0004548BF40424FF000013EE700BFE2
:1004280042004FEAE2014FEA31014FEA02701FBF72
:1004380012F07F4393F07F4F81F06051704732F0A4
:100448007F4208BF704793F07F4F04BF41F40021FB
:10045800704730B54FF4607401F0004521F0004159
:100468001CE700BF50EA010208BF704730B54FF0E3
:1004780000050AE050EA010208BF704730B511F0E4
:10048800004502D5404261EB41014FF4806404F11C
:1004980032045FEA915C3FF4D8AE4FF003025FEAA2
:1004A800DC0C18BF03325FEADC0C18BF033202EB26
:1004B800DC02C2F1200300FA03FC20FA02F001FA80
:1004C80003FE40EA0E0021FA02F11444BDE600BF23
:1004D80070B54FF0FF0C4CF4E06C1CEA11541DBFD2
:1004E8001CEA135594EA0C0F95EA0C0F00F0DEF89D
:1004F8002C4481EA030621EA4C5123EA4C5350EA82
:10050800013518BF52EA033541F4801143F48013D2
:1005180038D0A0FB02CE4FF00005E1FB02E506F063
:100528000042E0FB03E54FF00006E1FB03569CF0B8
:10053800000F18BF4EF0010EA4F1FF04B6F5007FBE
:1005480064F5407404D25FEA4E0E6D4146EB060630
:1005580042EAC62141EA55514FEAC52040EA5E50B9
:100568004FEACE2EB4F1FD0C88BFBCF5E06F1ED863
:10057800BEF1004F08BF5FEA500E50F1000041EB9A
:10058800045170BD06F0004646EA010140EA020047
:1005980081EA0301B4EB5C04C2BFD4EB0C0541EA69
:1005A800045170BD41F480114FF0000E013C00F37E
:1005B800AB8014F1360FDEBF002001F0004170BDA2
:1005C800C4F10004203C35DA0C341BDC04F11404BB
:1005D800C4F1200500FA05F320FA04F001FA05F247
:1005E80040EA020001F0004221F0004110EBD37014
:1005F80021FA04F642EB06015EEA430E08BF20EA40
:10060800D37070BDC4F10C04C4F1200500FA04F3E2
:1006180020FA05F001FA04F240EA020001F0004174
:1006280010EBD37041F100015EEA430E08BF20EAE7
:10063800D37070BDC4F1200500FA05F24EEA020E2F
:1006480020FA04F301FA05F243EA020321FA04F05E
:1006580001F0004121FA04F220EA020000EBD37015
:100668005EEA430E08BF20EAD37070BD94F0000F15
:100678000FD101F00046400041EB010111F4801F49
:1006880008BF013CF7D041EA060195F0000F18BFFA
:10069800704703F00046520043EB030313F4801F36
:1006A80008BF013DF7D043EA0603704794EA0C0FF0
:1006B8000CEA135518BF95EA0C0F0CD050EA410606
:1006C80018BF52EA4306D1D181EA030101F0004183
:1006D8004FF0000070BD50EA410606BF10461946AB
:1006E80052EA430619D094EA0C0F02D150EA0136B7
:1006F80013D195EA0C0F05D152EA03361CBF1046F8
:1007080019460AD181EA030101F0004141F0FE4196
:1007180041F470014FF0000070BD41F0FE4141F41A
:10072800780170BD70B54FF0FF0C4CF4E06C1CEA1A
:1007380011541DBF1CEA135594EA0C0F95EA0C0FCF
:1007480000F0A7F8A4EB050481EA030E52EA03358A
:100758004FEA013100F088804FEA03334FF08055AB
:1007680045EA131343EA12634FEA022245EA1115D8
:1007780045EA10654FEA00260EF000419D4208BF89
:10078800964244F1FD0404F5407402D25B084FEA36
:100798003202B61A65EB03055B084FEA32024FF4E2
:1007A80080104FF4002CB6EB020E75EB030E22BF3F
:1007B800B61A754640EA0C005B084FEA3202B6EBFF
:1007C800020E75EB030E22BFB61A754640EA5C00AE
:1007D8005B084FEA3202B6EB020E75EB030E22BF3E
:1007E800B61A754640EA9C005B084FEA3202B6EB3F
:1007F800020E75EB030E22BFB61A754640EADC00FE
:1008080055EA060E18D04FEA051545EA16754FEA5F
:1008180006164FEAC30343EA52734FEAC2025FEA7D
:100828001C1CC0D111F4801F0BD141EA00014FF00C
:1008380000004FF0004CB6E711F4801F04BF0143DD
:100848000020B4F1FD0C88BFBCF5E06F3FF6AFAEF9
:10085800B5EB030C04BFB6EB020C5FEA500C50F189
:10086800000041EB045170BD0EF0004E4EEA11310C
:1008780014EB5C04C2BFD4EB0C0541EA045170BD13
:1008880041F480114FF0000E013C90E645EA060E57
:100898008DE60CEA135594EA0C0F08BF95EA0C0F85
:1008A8003FF43BAF94EA0C0F0AD150EA01347FF4CD
:1008B80034AF95EA0C0F7FF425AF104619462CE7A4
:1008C80095EA0C0F06D152EA03353FF4FDAE104607
:1008D800194622E750EA410618BF52EA43067FF458
:1008E800C5AE50EA41047FF40DAF52EA43057FF4E8
:1008F800EBAE12E74FF0FF3C06E000BF4FF0010CF3
:1009080002E000BF4FF0010C4DF804CD4FEA410C56
:100918007FEA6C5C4FEA430C18BF7FEA6C5C1BD023
:1009280001B050EA410C0CBF52EA430C91EA030FA4
:1009380002BF90EA020F0020704710F1000F91EA01
:10094800030F58BF994208BF90422CBFD8176FEACF
:10095800E37040F0010070474FEA410C7FEA6C5C9D
:1009680002D150EA013C07D14FEA430C7FEA6C5CA4
:10097800D6D152EA033CD3D05DF8040B704700BFD0
:100988008446104662468C461946634600E000BF1E
:1009980001B5FFF7B7FF002848BF10F1000F01BDF0
:1009A8004DF808EDFFF7F4FF0CBF012000205DF8BB
:1009B80008FB00BF4DF808EDFFF7EAFF34BF012040
:1009C80000205DF808FB00BF4DF808EDFFF7E0FFD9
:1009D80094BF012000205DF808FB00BF4DF808ED2A
:1009E800FFF7CEFF94BF012000205DF808FB00BF91
:1009F8004DF808EDFFF7C4FF34BF012000205DF873
:100A080008FB00BF4FEA410212F5001215D211D5BA
:100A18006FF47873B3EB625212D94FEAC12343F0F3
:100A2800004343EA505311F0004F23FA02F018BF75
:100A3800404270474FF00000704750EA013005D13E
:100A480011F0004008BF6FF0004070474FF0000001
:100A5800704700BF4A0011D212F5001211D20DD50D
:100A68006FF47873B3EB62520ED44FEAC12343F0AC
:100A7800004343EA505323FA02F070474FF0000056
:100A8800704750EA013002D14FF0FF3070474FF005
:100A98000000704753B94AB9002908BF00281CBF95
:100AA8004FF0FF314FF0FF3000F06AB9ADF1080C9C
:100AB8006DE904CE00F006F8DDF804E0DDE9022374
:100AC80004B070472DE9F047089D0E4604460F46CE
:100AD800002B4AD194468C45B2FA82F260D942B1D1
:100AE800C2F12003974020FA03F30CFA02FC1F43DB
:100AF80094404FEA1C4E1FFA8CF6B7FBFEF1230C0C
:100B08000EFB117743EA074301FB06F098420AD926
:100B18001CEB030301F1FF3780F01581984240F286
:100B28001281023963441B1AA4B2B3FBFEF00EFB18
:100B3800103344EA034400FB06F6A6420AD91CEB2C
:100B4800040400F1FF3380F00081A64240F2FD80EA
:100B58006444023840EA0140A41B00211DB1D4407E
:100B68000023C5E90043BDE8F0878B4205D90DB1E4
:100B7800C5E9000100210846F5E7B3FA83F1002929
:100B880046D1B34202D3824200F2F580841A66EB62
:100B9800030201201746002DE5D0C5E90047E2E72A
:100BA800002A40F09380A1EB0C034FEA1C471FFA80
:100BB8008CFE0121B3FBF7F607FB1630230C43EA42
:100BC80000430EFB06F0984208D91CEB030306F11C
:100BD800FF3802D2984200F2D08046461B1AA4B2CF
:100BE800B3FBF7F007FB103344EA03440EFB00FEA7
:100BF800A64508D91CEB040400F1FF3302D2A64530
:100C080000F2B6801846A4EB0E0440EA0640A5E7B9
:100C1800C1F120078B4022FA07FC4CEA030C06FAC4
:100C280001FE20FA07F426FA07F344EA0E0400FA54
:100C380001F84FEA1C404FEA1449B3FBF0FE1FFAD3
:100C48008CF600FB1E3349EA03430EFB06F999456F
:100C580002FA01F20BD91CEB03030EF1FF3A80F004
:100C68008580994540F28280AEF1020E6344A3EB81
:100C78000909A4B2B9FBF0F300FB139944EA09444B
:100C880003FB06F6A64208D91CEB040403F1FF3067
:100C980068D2A64266D9023B644443EA0E40A41BCC
:100CA800A0FB02E6B4427346B14652D34FD05DB1C1
:100CB800B8EB030264EB090404FA07F722FA01F31C
:100CC8001F43CC40C5E9007400214CE7C2F1200164
:100CD80020FA01F30CFA02FC26FA01F1964033439C
:100CE8004FEA1C471FFA8CFEB1FBF7F007FB101602
:100CF800190C41EA064100FB0EF68E4204FA02F492
:100D080008D91CEB010100F1FF382DD28E422BD9F6
:100D180002386144891B9BB2B1FBF7F607FB161139
:100D280043EA014306FB0EF1994208D91CEB030381
:100D380006F1FF3814D2994212D9023E63445B1A75
:100D480046EA004136E73946EDE6184602E7F0453F
:100D5800ADD2BEEB020366EB0C060138B146A6E73E
:100D68004646ECE7034698E74046D3E7D6467EE793
:100D78006444023847E708460DE7023E63442DE71E
:100D8800704700BF70B50F4B0F4DAB42A3EB050684
:100D980007D0B610002455F8043B01349847A64202
:100DA800F9D801F03FFE094D094B5E1BAB424FEAF3
:100DB800A60606D0002455F8043B01349847A642FD
:100DC800F9D870BD182B0008182B0008182B00083C
:100DD800202B0008002301461A46184600F014B8D4
:100DE80038B5074D074C2C1BA41005D0013C55F80D
:100DF800043D9847002CF9D1BDE8384001F018BEF1
:100E0800242B0008202B000870B4164D2C681CB346
:100E180065681F2D23DC38B9AB1C0135656044F8C3
:100E28002310002070BC704704EB850C0228CCF816
:100E38008820D4F888614FF0010202FA05F246EAE8
:100E48000206C4F88861CCF80831E5D1D4F88C31B1
:100E58001343C4F88C31DFE7034C2C60D8E74FF01C
:100E6800FF30DFE7580000205C000020054B0649F2
:100E78001A6843F2390001FB02001860C0F30E4003
:100E8800704700BF000000206D4EC64110B50A4CE7
:100E9800237973B1FFF7EAFF2279B0FBF2F3A118C7
:100EA80003FB12002318097958795971013A227104
:100EB80010BD4FF0FF30FBE7000000202DE9F8439C
:100EC800DFF85880DFF8589007460E461446102180
:100ED800404601F09DFC012801D1002016E0404663
:100EE80001F0A1FC01460546484601F093F8238825
:100EF800C62B10D85A1C0A2D2280F55408D12388F5
:100F08000022F254012023883B802080BDE8F8832A
:100F18000D2DDCD1F3E70124D9E700BF00300040F4
:100F2800A42A00081FB5184C01222046002101F010
:100F38008DF901221146204601F088F901A801F037
:100F480080FC4FF4165301936023A4F5E234ADF806
:100F5800083000238DF80A3001A94FF09873204615
:100F6800039301F08BFC2046012101F075FC20461B
:100F78000122102101F05DFC01224021204601F0F0
:100F880058FC04B010BD00BF00F4014010B5104C6F
:100F98000122E17AE06801F0A9F8E17AE06801222B
:100FA80001F03BF9217CE068012201F09FF8217CE7
:100FB800E068012201F031F9617CE068012201F06A
:100FC80095F8617CE0680122BDE8104001F025B980
:100FD800000000202DE9F0470121B4B00D2001F0F8
:100FE800BDF901211F2001F0B9F90121202001F0EC
:100FF800B5F9FFF797FFFFF7C9FF3E4BDFF81881F8
:101008003D4E4FF480021A60402283F816230025D3
:101018000123ADF806302C461021404601F025FC8E
:10102800012820D11021404601F025FC40214046EE
:1010380001F021FC0DF1060202A901A8FFF73EFF0D
:10104800B8B1DFF8D8A002AF4FF00109BDF80430FD
:10105800013B4B450DDD17F8011F504600F0DAFF44
:1010680009F10109F2E74021404601F0FEFB0128A1
:10107800D8D03378012B12D1002333701F4B9C42F8
:101088000DD11F4800F0C6FFFFF700FF431C0146C3
:1010980002D01C4800F0BEFF0135EDB20024737881
:1010A800012B08D1154B00279C42777003D11648B5
:1010B80000F0B0FF3C46B378012B0AD10F4B002754
:1010C8009C42B77005D1114800F0A4FF3C4601349A
:1010D80002E00F4B9C42FAD9062D9DD10D4BD3F857
:1010E8001220C3F80520DA8A1D71A3F8092000250B
:1010F80092E700BF00E100E034000020C0D4010006
:10110800AD2A0008C12A0008CD2A0008E12A0008F3
:10111800BFD401000000002000300040AA2A0008C7
:101128007047FEE7FEE7FEE7FEE770477047704747
:101138007047000038B5154D1548297801F07CF83E
:101148000128044606D12978114801F05FF8114BAF
:101158001C7038BD104D0E48297801F06DF8012833
:10116800044605D129780A4801F050F80B4BEFE7FF
:101178000B4D0748297801F05FF801280446E8D1AB
:101188002978034801F042F8064BE1E70B000020FC
:1011980000F001403400002010000020350000203D
:1011A800110000203600002070472DE9F84F9846BE
:1011B8000D9B15469A07DDE90B4906460F4623D0D5
:1011C8002A460A9B03EB040A1444A24220D10D9B31
:1011D8009B0705D5A2EB050AD14505EB0A0420D8E3
:1011E8002046BDE8F88F434639462020B0470AF12B
:1011F800010ACA450AEB0B02F5D3A9EB04024C45D8
:1012080088BF00222A44DCE7A246A5EB040BF0E7DE
:1012180002F1010B1AF8010D43463946B0475A4608
:10122800D3E74346224639462020B0470AF1010A4F
:10123800D2E72DE9F047DDE90D7616F0020FDDE97A
:101248000854DDE90BCE9DF828801FD106F001096E
:101258004FB1B9F1000F06D0B8F1000F02D116F066
:101268000C0F00D0013F4FF0300A04E0202C04D0CE
:1012780005F804A001347445F8D3B9F1000F05D07E
:101288004FF03009A74201D9202C2DD116F0100FAC
:101298001FD016F4806F2CD15CB3744501D0BC42CA
:1012A80027D1B4F1010E23D0BCF1100F46D1023C76
:1012B80016F0200F28D1202C28D04FF0780C05F8F4
:1012C80004C00134202C21D04FF0300C05F804C0A4
:1012D8000134202C1AD0B8F1000F23D04FF02D0C78
:1012E80005F804C0013412E005F804900134C9E798
:1012F8007446BCF1100FDBD0BCF1020FE2D1202CF8
:1013080004D04FF0620CDAE7202C08D12024CDE974
:101318000A76CDE90854BDE8F047FFF746BF4FF01D
:10132800580CCCE716F0040F02D04FF02B0CD7E77F
:1013380016F0080FEBD04FF0200CD1E7BCF1020FEC
:101348007446C1D1DDE72DE9F04391B0189D1A9E8E
:101358001D9F0DB927F010077C0500D515B317F0B0
:10136800200F14BF4FF0410E4FF0610EAC460DF147
:1013780020080025AEF10A0EBCFBF6F906FB19C9D8
:101388005FFA89F4B9F1090F94BF30347444E4B2B8
:10139800B44508F8014BBCFBF6F405F1010501D38F
:1013A800202D10D11C9C05941B9C0697CDE9036445
:1013B8009DF86440CDE9015408AC0094FFF739FF6B
:1013C80011B0BDE8F083A446D6E72DE9F04F95B0FB
:1013D800DDE91E74269ECDE90A2357EA040308BFF7
:1013E80026F010067205CDE90801DDE9229B02D539
:1013F80057EA040337D016F0200F14BF41236123A6
:101408000DF1300A0025A3F10A0821464A465B4639
:101418003846FFF73FFBD2B2092A94BF3032424424
:101428004F45D2B274EB0B040AF8012B05F1010504
:1014380001D3202D14D1259B0593249B0696CDE935
:1014480003939DF88030CDE901530CAB0093DDE99F
:101458000801DDE90A23FFF7ECFE15B0BDE8F08FBF
:1014680007460C46D1E70025E5E70000000000002C
:101478002DE9F04F2DED028B93B09DED1E7B1F469D
:10148800DDE920530B920E9353EC172BCDE909019C
:10149800104619468DED067B229EFFF781FA80B132
:1014A800DDE90601C44B4FF0FF32FFF7A1FA40B95E
:1014B800DDE906014FF0FF326FF48013FFF77AFA87
:1014C80090B10E9B099822969DED067BDDE90A12E4
:1014D800CDE920533B468DED1E7B13B0BDEC028B4E
:1014E800BDE8F04F00F080B9DDE9060100220023D5
:1014F800FFF760FA002800F03681DDE906A303F162
:10150800004B16F480630F93CBF30A53A3F2FF3317
:1015180007EE903ACBF31302F8EEE77A9FEDA77A3D
:101528009FEDA78AA74B42F07F5150464FF000022B
:1015380041F4401108BF0625A7EE878AFEF710FE82
:1015480097A3D3E90023FEF7C3FF804618EE100ADD
:101558008946FEF765FF02460B4640464946FEF7B8
:1015680001FEFFF74FFA07EE900AB8EEE77ADFEDD3
:10157800967AB6EE008AA7EE278A0446DFED937ABC
:10158800BDEEC88AF8EEC86A67EEE67ADFED906AC3
:10159800E7EE267A17EE900AFEF742FF02460B4660
:1015A800CDE90C23FEF794FFDDE90C23804689463C
:1015B80010461946FEF7D6FD864BCDE910010022EC
:1015C80040464946FFF7AEF8834B0022FEF7CAFDB6
:1015D80002460B4640464946FFF7A4F87F4B0022D7
:1015E800FEF7C0FD02460B4640464946FFF79AF80B
:1015F800DDE90C238046894600204FF08041FEF744
:10160800AFFD02460B4640464946FEF7ABFD024693
:101618000B46DDE91001FFF785F8714B0022FEF754
:10162800A1FD18EE103A03F2FF3C00224FEA0C53DA
:10163800FEF74EFF52465B4680468946FFF7D8F9CB
:10164800002840F09380CDE90C8904F16303C62B90
:101658008CBF4FF005084FF0040831051ED552A382
:10166800D3E9002350465946FFF7B8F9002800F09F
:1016780087804FA3D3E9002350465946FFF79AF9CC
:1016880000287DD0A542C8BF2C1B4FF00008CCBF56
:1016980004F1FF35002546F4806644460E9B9845C4
:1016A80034BFA3EB08094FF0000916F002030F93AB
:1016B80004D0B8F1000F18BF4FF000093CB15046F4
:1016C8005946DDE90C23FFF72DF882468B46DDE904
:1016D800060100220023FFF76DF910B10BF100435A
:1016E8009B4626F40063CDE90393DDE90A12CDE9B0
:1016F80000AB099802953B4600F076F80246B8F12F
:10170800000F2AD016F0200F00F101050A99099E52
:101718000CBF652045203B46B0470523059308F1DB
:10172800FF33049300220A23002CCDE902324FEA4A
:10173800D473B8BF644201932A463B46DDE90901E8
:101748000094FFF700FE0F9B024633B10B9BC41AAF
:101758000B9B1A190E9BA34219D8104613B0BDEC67
:10176800028BBDE8F08FDDE906ABCAE61A4B002212
:1017780040464946FEF7D6FF013CCDE90C0164E737
:10178800002D8BD00F9B002B88D0013D86E70A994E
:10179800099D3B462020A8470134D9E7AFF30080D4
:1017A80000000060A787D23F000000E0E2361A3F41
:1017B8000000000080842E41FFFFEF7F9B209A3EAF
:1017C8004451343E0000F83F789A54401872313F33
:1017D8008E5D134000002C4000002440000018409B
:1017E8000000F03F000000002DE9F04F97B0DDE960
:1017F80020ABCDE90501CDE90723504652465B46AB
:101808005946DDE92258249FFFF7CAF870B9032327
:10181800CDE922872193AE4B2093DDE90501DDE96F
:10182800072317B0BDE8F04FFFF7BFBC4FF0FF32FA
:101838006FF4801350465946FFF7BCF828B10423CB
:101848002193CDE92287A34BE6E7A34B4FF0FF3264
:1018580050465946FFF7CCF868B1A04A07F0040390
:10186800002B08BF03229E4B1CBF13460422CDE960
:1018780022872192D0E792A3D3E900235046594604
:10188800FFF7B6F838B990A3D3E900235046594674
:10189800FFF790F868B1DDE90723DDE90501CDE937
:1018A8002387CDE920AB229517B0BDE8F04FFFF7AD
:1018B800DFBD0022002350465946FFF77BF8002879
:1018C80000F091805B46524600200021FEF748FC5C
:1018D800012382468B46099317F4806400F08580C3
:1018E800092D40F285800EABA5F1090200243021B4
:1018F8000134202C03F8011BA5EB040901D0944204
:10190800F6D159465046FFF77DF8764B03EBC903ED
:1019180093ED007B05468DED0A7BFEF76FFD0246D1
:101928000B4650465946FEF71BFCDDE90A23FEF735
:10193800CFFD02460B46CDE90C23FFF78BF8064690
:10194800FEF74CFD02460B46DDE90C01FEF708FCEC
:1019580002460B46CDE90C23634B0022FFF748F8FB
:10196800002848D001363046FEF738FD02460B46BF
:10197800DDE90A01FFF728F808B101350026B9F1B9
:10198800000F45D12846FEF739FD02460B46504662
:101998005946FEF7E5FB544B0022FFF70BF810B948
:1019A800E90700D501350EAB1A190A21202C0AD0F7
:1019B80095FBF1F001FB1055303502F8015B01345D
:1019C80005460028F2D107F00302012A5DD1B8F1DB
:1019D800000F5AD0099A12B917F00C0F01D008F16C
:1019E800FF3830223FE0099076E74FF0060988E794
:1019F800A946002485E7DDE90C013B4B0022FEF7F0
:101A0800D9FF0028BBD10EB1F007B8D50136B6E72B
:101A18000EAB1A190A21202C0CD0B6FBF1F001FBF1
:101A280010633033092E02F8013B09F1FF3904F144
:101A3800010411D8A1440EAA3021202CB3D04C4562
:101A480004F101030AD104F158020DEB02042E221D
:101A580004F8202C1C46A6E70646DCE7A1541C46E1
:101A6800EBE71A55013444450FD2202CF9D10EABBF
:101A78000093CDE90287DDE90723DDE9050101943B
:101A8800FFF793FB17B0BDE8F08F202CEFD0099B30
:101A98003BB104F158036B442D2203F8202C013488
:101AA800E5E77A0704D504F158036B442B22F4E7E1
:101AB8003B07DCD504F158036B442022EDE700BF57
:101AC8000000000065CDCD410000000065CDCDC10E
:101AD800FE2A0008022B0008FFFFEF7FF52A000806
:101AE800FA2A0008482A00080000E03F014610B121
:101AF800014800F093BE7047003000402DE9F04FD8
:101B080091B098460B1E0A93B34B1A9E914614BF88
:101B180083469B46002598F8000060B94D450A9910
:101B28002CBF09F1FF322A464B460020D8472846E9
:101B380011B0BDE8F08F252808F1010806D02A4623
:101B48000A996C1C4B46D8472546E4E700234146D2
:101B580011F8012B2B2A16D00AD8202A16D0232AAE
:101B680017D0A2F13000092834D800270A2418E039
:101B78002D2A05D0302AF4D143F001038846E6E740
:101B880043F00203FAE743F00403F7E743F00803DE
:101B9800F4E743F01003F1E704FB0722A2F1300752
:101BA8008846414611F8012BA2F130000928F3D9E3
:101BB80098F800202E2A52D198F80110A1F130008F
:101BC800092808F1010243F480633ED800244FF04D
:101BD8000A0E11E02A2A08D156F8047B002FBCBF50
:101BE80043F002037F428846E2E70027E0E70EFB66
:101BF8000411A1F130040246104610F8011BA1F1AE
:101C0800300CBCF1090FF2D99046424612F8011B7C
:101C18006C292DD025D8682933D06A293BD0424673
:101C2800904618F8010B672860D8572836D84528F9
:101C380008D084D9462800F0188147287FF47FAF60
:101C480043F4006343F0200329E12A2906D156F81A
:101C5800044B08F1020824EAE474D6E7904600240D
:101C6800D3E7742901D07A29D9D143F48073D7E70F
:101C780098F801106C29F8D143F4407308F1020276
:101C8800CEE798F80110682902D043F08003C7E72F
:101C980043F0C003F2E743F40073C1E7A0F1580230
:101CA8000F2A3FF64CAF01A151F822F0551D00084C
:101CB800471B0008471B0008471B0008471B000874
:101CC800471B0008471B0008471B0008471B000864
:101CD800471B0008551D0008C91E0008551D0008AF
:101CE8009B1E0008771E00089B1E0008A0F16901D2
:101CF800C9B20F293FF623AF01228A4049F2410CAD
:101D080012EA0C0218D10A2900F0198107297FF478
:101D180016AF43F0210305930823CDE903431023AD
:101D2800CDE9012356F8043B00930A994B462A460D
:101D38005846FFF708FBAAE06F2800F0648110D925
:101D4800782808D1102223F00C0310E0582839D045
:101D5800622800F05A8123F010030A22642806D072
:101D6800F1E7692823F010034FF00A02F6D159056C
:101D780048BF23F00103692803F4007101D06428E7
:101D880040D111B3073626F00706B24670685AF8F4
:101D9800081B0694CDE9077300230593C30F002899
:101DA800029304920B4602DA4B4260EB4000CDE905
:101DB80000300A994B462A465846FFF706FB054667
:101DC8005646A8E643F02003BCE7D90506F1040A05
:101DD80004D5316805E000BFB111000858060CD5DC
:101DE8003178CDE90224CDE9047300294FEAD17393
:101DF8000193B8BF4942009120E01906E9D5B6F928
:101E08000010EEE779B1CDE907730023CDE904238B
:101E180006F1070A2AF0070A06940293FAE8022351
:101E2800CDE90023C5E7D80506F1040A0DD5CDE9AB
:101E38000473CDE902240191336800930A994B4653
:101E48002A465846FFF77FFAB9E7590607D5317889
:101E5800CDE904730023CDE902240193CBE731686F
:101E680013F0800F18BF89B2F2E743F02003CDE9E1
:101E78000373073626F007060294F6E802230A9948
:101E8800CDE9002358464B462A46FFF7ADFC0546E8
:101E980041E600F0DF00472801D143F40063CDE9B3
:101EA8000373073626F007060294F6E802230A9918
:101EB800CDE9002358464B462A46FFF7D9FAE6E70C
:101EC80013F0020426D04FF0010A6B1C0B930A99F9
:101ED80016F8040B4B462A46D84774B30B9A544657
:101EE80021E00A994B462020D8470AEB05020AF15F
:101EF800010A5745F5D83A1E18BF0122002A07F1F2
:101F0800FF3308BF002307F1010A1D4408BF4FF043
:101F1800020ADAE7A246E8E7551C0A994B46202050
:101F2800D84701342A46BC42F6D30B9AA7EB0A03DA
:101F3800574538BF00231A440B920B9DEBE53246F8
:101F480052F804AB0B92324ABAF1000F08BF92461E
:101F5800002C14BF21464FF0FF31514452461078EF
:101F680008B1914210D1A2EB0A0613F480620C92D8
:101F780002D0A64228BF264613F002030D9317D1BC
:101F8800731B2A460F9308E00132E8E7531C0E93AF
:101F98000A994B462020D8470E9A0F9BD318BB426C
:101FA800F4D3BB1BB74238BF0023721C1D449E18D4
:101FB800A5EB0A030E9304E01C460A994B462A46F1
:101FC800D8470E9B0AEB03051AF8010B28B10C9BA6
:101FD800002BF2D0631E002CEED10D9B8BB12A464C
:101FE800741B06E002F1010A0A994B462020D847E3
:101FF80052461319BB42F5D3BB1BB74238BF002367
:102008001D440B9E87E508229DE602229BE600BF41
:10201800072B00080FB41FB506AA02A952F8043B03
:102028000392009204484FF0FF32FFF767FD05B0B6
:102038005DF804EB04B07047F51A0008064B074832
:10204800E02283F82220C0210023C2180133252B67
:1020580082F80013F9D1704700ED00E000E100E0DC
:102068000F4A08B5D2F8883043F47003C2F88830B4
:102078004FF08042D36843F08003D36002F500320A
:10208800536923F4702343F48033536193689B07A7
:10209800FCD5FFF7D3FFBDE8084000F003B800BF48
:1020A80000ED00E008B5012000F0F2F80C4B984272
:1020B80014D90C4A0133B0FBF3F313700A4A4FF4F6
:1020C8007A73B0FBF3F04FF0E0230138E021586158
:1020D80082F8231000229A6107221A6108BD00BF06
:1020E8003F420F005500002000ED00E0012310B52D
:1020F8008B40062A00F28180DFE802F0040F1B29DA
:102108003849630002681A43026082681A43826091
:10211800C26822EA0303C36018E002681A43026037
:1021280082681A438260C2681A43C2600269134314
:102138000BE002681A43026082681A438260C26830
:102148001A43C260026922EA0303036110BD0268F0
:1021580022EA03020260826822EA0302826042687D
:1021680022EA03024260826913430EE0026822EA0F
:1021780003020260826822EA03028260426822EA5D
:1021880003024260826922EA03038361DEE71E4C90
:10219800A0426FEA03020BD1072909D981691140CE
:1021A800816181680A40826002681A430260BDE763
:1021B80001681140016081680A40826042681A43E0
:1021C800D0E7114CA0426FEA03020AD1072908D9C7
:1021D80081691140816181681140816001680A400C
:1021E800E4E701681140016081681140816041683D
:1021F8000B43436083691340C7E702681A430260D0
:10220800826822EA030282E700FC0140C26A4900B0
:1022180003238B401340C362704770B50C461546C4
:10222800FFF7F4FF836A610003228A4023EA02036E
:102238008D402B43836270BDC26A490003238B40E3
:10224800134214BF0120002070470000072910B571
:1022580011D90E4B083998420BBF01EB4101890097
:1022680007230F238B4002FA01F1C26B22EA030312
:102278000B43C36310BD836B89000F248C4023EA92
:1022880004038A401A438263F4E700BF00FC01405C
:102298004FF0804301461A6802F4E042B2F5A04FBD
:1022A80020D015D8B2F5805F1ED0B2F5005F1B486C
:1022B80008BF4FF4004002291BD0032923D001296D
:1022C80005D14FF080431B68C3F30323D840704700
:1022D800B2F5C04F0BD0114B1148B2F5E04F18BF03
:1022E8001846E8E70F48E6E74FF4FA40E3E70E48F8
:1022F800E1E74FF080421368C3F30323D840136823
:10230800C3F34213E2E74FF080421368C3F3032399
:10231800D8401368C3F3C233D8E700BF00366E0154
:10232800006CDC020048E80180EE36004FF0804384
:10233800986800F4C03070474FF08043986800F404
:10234800C04070474FF08043986800F4C050704711
:102358004FF08043986800F4C060704741284AD81D
:10236800DFE810F011020702FD01E401D201B90112
:10237800710167015D01530149013F0135010D01FB
:102388000301D600EA00E000CC004900C200B80012
:10239800AE00A30099008F0085006B006100570014
:1023A8004D004200170121012B0149004900490055
:1023B80049004900490049004900490049004900CD
:1023C800490049002E0225021B02380295014900E6
:1023D80049004900490049004900490049004900AD
:1023E8004900490042024C024FF08043DA6819B1B3
:1023F80042F48012DA60704722F48012FAE74FF054
:102408008043DA6811B142F40022F3E722F4002293
:10241800F0E74FF08043DA6811B142F48022E9E72F
:1024280022F48022E6E74FF08043DA6811B142F4E3
:102438000032DFE722F40032DCE74FF08043DA684D
:1024480079B142F48032DA604FF080439A6A02F040
:102458003F023F2AFAD15A6931B142F004025A6167
:10246800704722F48032EEE722F00402F7E74FF0DB
:102478008043DA6811B142F40042BBE722F400421B
:10248800B8E74FF08043DA6811B142F48042B1E70F
:1024980022F48042AEE74FF08043DA6811B142F48B
:1024A8000052A7E722F40052A4E74FF080431A69CC
:1024B80019B142F020021A61704722F02002FAE7AF
:1024C8004FF08043DA6811B142F4805292E722F467
:1024D80080528FE74FF08043DA6811B142F400620E
:1024E80088E722F4006285E74FF08043DA6811B18B
:1024F80042F480627EE722F480627BE74FF08043FB
:10250800DA6811B142F4807274E722F4807271E7DC
:102518004FF08043DA6811B142F020026AE722F0F6
:10252800200267E74FF08043DA6811B142F0800279
:1025380060E722F080025DE74FF08043DA6871B10E
:1025480042F04002DA604FF080439A6A02F03F029C
:102558003F2AFAD15A6929B142F008027FE722F0EE
:102568004002EFE722F0080279E74FF08043DA688B
:1025780011B142F010023DE722F010023AE74FF0A5
:102588008043DA6811B142F0007233E722F000723A
:1025980030E74FF08043DA6811B142F0807229E7E2
:1025A80022F0807226E74FF08043DA6811B142F4D6
:1025B80000021FE722F400021CE74FF08043DA68AC
:1025C80011B142F4800215E722F4800212E74FF0BD
:1025D8008043DA6811B142F008020BE722F00802E2
:1025E80008E74FF08043DA6811B142F0040201E7CE
:1025F80022F00402FEE64FF08043DA6811B142F09F
:102608000202F7E622F00202F4E64FF08043DA68AD
:1026180011B142F00102EDE622F00102EAE64FF0C4
:102628008043DA6811B142F00062E3E622F000620A
:10263800E0E64FF08043DA6811B142F08062D9E6F3
:1026480022F08062D6E64FF080431A6979B142F4ED
:1026580000721A619A6A02F03F023F2AFAD15A6957
:1026680042F010025A611A6942F0100223E722F080
:1026780010021A619A6A02F03F023F2AFAD15A6997
:1026880022F010025A611A6922F4007213E74FF01F
:1026980080431A6979B142F480521A619A6A02F049
:1026A8003F023F2AFAD15A6942F020025A611A6958
:1026B80042F40062FFE622F400621A619A6A02F0AC
:1026C8003F023F2AFAD15A6922F020025A611A6958
:1026D80022F48052EFE64FF080431A6971B142F05C
:1026E80008021A614FF080439A6A02F03F023F2ABB
:1026F800FAD15A6929B142F00102B0E622F0080283
:10270800EFE722F00102AAE64FF080431A6931B1DF
:1027180042F004021A611A6942F04002CBE622F044
:1027280004021A611A6922F04002C4E64FF080439D
:102738001A6971B142F002021A614FF080439A6A35
:1027480002F03F023F2AFAD15A6929B142F0020247
:1027580085E622F00202EFE722F002027FE64FF060
:102768008043DA6811B142F0805243E622F0805289
:1027780040E64FF080431A6911B142F001029AE62F
:1027880022F0010297E64FF080431A6911B142F036
:10279800800290E622F080028DE64FF080431A69AD
:1027A80011B142F4807286E622F4807283E64FF01B
:1027B8008043DA6809B11A431CE622F0804219E620
:1027C8004FF08043DA6811B142F0005212E622F06D
:1027D80000520FE64FF080431A6911B142F480624B
:1027E80069E622F4806266E64FF08043DA6811B148
:1027F80042F40012FEE522F40012FBE54FF080439C
:10280800DA6811B142F00042F4E522F00042F1E545
:1028180083690B4214BF01200020704783699B061F
:10282800FCD4016070478369DB06FCD40068C0B241
:102838007047836B1AB923EA0103836370470B431C
:10284800FBE74FF4E1330360602383800023837147
:102858004FF4401383607047036B19B143F00103D1
:102868000363704723F00103FAE7036C0B4214BFBC
:1028780001200020704741647047000038B5036BA1
:1028880023F001030363C36A23F01003C362002328
:102898008363484B984204460D464AD1FFF746FDEC
:1028A800C00B013802285CD8434B53F820002B6832
:1028B800B0EB031F4FEA031178D36BB1B0FBF1F211
:1028C80001FB1200C000B0FBF3F000F0010303EBC2
:1028D80050039BB243EA02431A0C03F03F036262BF
:1028E800A362E36A2A7923F060031343E362E36A8D
:1028F800AA7923F008031343E362EB7A002B3CD058
:10290800E36A43F01003E3626B79012B39D0022BA1
:1029180040D0002B46D0236BAA7A23F03003134310
:102928002363236B2A8923F4404313432363002042
:1029380038BDB0F1402F04D1FFF7FEFCC0F34F3093
:10294800AFE71E4B984204D1FFF7FCFCC0F3CF2041
:10295800A7E71B4B98420ED1FFF7FAFCC0F34F20B4
:102968009FE7144B9C4202D0B4F1402F03D10220C0
:10297800FFF78EFC9BE70320FAE7E36A23F01003D6
:10298800C1E7E36A43F00203E362E36A23F0040366
:10299800E362C0E7E36A43F00203E362E36A43F0F9
:1029A8000403F5E7E36A23F00203F1E74FF0FF3091
:1029B800BEE700BF00300040982A00080000014030
:1029C80000100140002103E00B4B5B5843500431D9
:1029D8000A480B4B42189A42F6D30A4A02E00023EF
:1029E80042F8043B084B9A42F9D3FFF739FBFEF74C
:1029F800C9F9FEF7EFFAFEE7242B000800000020D3
:102A08001800002018000020EC010020FEE700005C
:102A1800024B13B10248FEF7DDB970470000000011
:102A2800E90D0008F8B500BFF8BC08BC9E46704721
:0C2A3800F8B500BFF8BC08BC9E46704713
:102A4800000000000000F03F0000000000002440EB
:102A580000000000000059400000000000408F40C6
:102A6800000000000088C34000000000006AF84031
:102A78000000000080842E4100000000D012634155
:102A88000000000084D797410000000065CDCD41CB
:102A980080EE36000080000000366E012530325886
:102AA800200025640020627574746F6E20612070A8
:102AB800726573736564200A0052616E646F6D3AC3
:102AC8002025640A0020627574746F6E206220707D
:102AD800726573736564200A0020627574746F6E82
:102AE80020632070726573736564200A00666E69DE
:102AF8002B00666E69006E616E00666E692D002897
:082B08006E756C6C29000000E1
:082B1000BCDFFF7F01000000A3
:082B1800192A00084101000820
:042B2000190100088F
:102B240039300000060102030405060900F00140E3
:082B340004050102030405067B
:04000005080029CDF9
:00000001FF
